{
  "_format": "hh-sol-artifact-1",
  "contractName": "WhitelistedToken",
  "sourceName": "contracts/WhitelistedToken.sol",
  "abi": [
    {
      "inputs": [
        {
          "internalType": "uint256",
          "name": "initialSupply",
          "type": "uint256"
        }
      ],
      "stateMutability": "nonpayable",
      "type": "constructor"
    },
    {
      "inputs": [
        {
          "internalType": "address",
          "name": "spender",
          "type": "address"
        },
        {
          "internalType": "uint256",
          "name": "allowance",
          "type": "uint256"
        },
        {
          "internalType": "uint256",
          "name": "needed",
          "type": "uint256"
        }
      ],
      "name": "ERC20InsufficientAllowance",
      "type": "error"
    },
    {
      "inputs": [
        {
          "internalType": "address",
          "name": "sender",
          "type": "address"
        },
        {
          "internalType": "uint256",
          "name": "balance",
          "type": "uint256"
        },
        {
          "internalType": "uint256",
          "name": "needed",
          "type": "uint256"
        }
      ],
      "name": "ERC20InsufficientBalance",
      "type": "error"
    },
    {
      "inputs": [
        {
          "internalType": "address",
          "name": "approver",
          "type": "address"
        }
      ],
      "name": "ERC20InvalidApprover",
      "type": "error"
    },
    {
      "inputs": [
        {
          "internalType": "address",
          "name": "receiver",
          "type": "address"
        }
      ],
      "name": "ERC20InvalidReceiver",
      "type": "error"
    },
    {
      "inputs": [
        {
          "internalType": "address",
          "name": "sender",
          "type": "address"
        }
      ],
      "name": "ERC20InvalidSender",
      "type": "error"
    },
    {
      "inputs": [
        {
          "internalType": "address",
          "name": "spender",
          "type": "address"
        }
      ],
      "name": "ERC20InvalidSpender",
      "type": "error"
    },
    {
      "anonymous": false,
      "inputs": [
        {
          "indexed": true,
          "internalType": "address",
          "name": "owner",
          "type": "address"
        },
        {
          "indexed": true,
          "internalType": "address",
          "name": "spender",
          "type": "address"
        },
        {
          "indexed": false,
          "internalType": "uint256",
          "name": "value",
          "type": "uint256"
        }
      ],
      "name": "Approval",
      "type": "event"
    },
    {
      "anonymous": false,
      "inputs": [
        {
          "indexed": true,
          "internalType": "address",
          "name": "from",
          "type": "address"
        },
        {
          "indexed": true,
          "internalType": "address",
          "name": "to",
          "type": "address"
        },
        {
          "indexed": false,
          "internalType": "uint256",
          "name": "value",
          "type": "uint256"
        }
      ],
      "name": "Transfer",
      "type": "event"
    },
    {
      "inputs": [
        {
          "internalType": "address",
          "name": "account",
          "type": "address"
        }
      ],
      "name": "addToWhitelist",
      "outputs": [],
      "stateMutability": "nonpayable",
      "type": "function"
    },
    {
      "inputs": [
        {
          "internalType": "address",
          "name": "owner",
          "type": "address"
        },
        {
          "internalType": "address",
          "name": "spender",
          "type": "address"
        }
      ],
      "name": "allowance",
      "outputs": [
        {
          "internalType": "uint256",
          "name": "",
          "type": "uint256"
        }
      ],
      "stateMutability": "view",
      "type": "function"
    },
    {
      "inputs": [
        {
          "internalType": "address",
          "name": "spender",
          "type": "address"
        },
        {
          "internalType": "uint256",
          "name": "value",
          "type": "uint256"
        }
      ],
      "name": "approve",
      "outputs": [
        {
          "internalType": "bool",
          "name": "",
          "type": "bool"
        }
      ],
      "stateMutability": "nonpayable",
      "type": "function"
    },
    {
      "inputs": [
        {
          "internalType": "address",
          "name": "recipient",
          "type": "address"
        },
        {
          "internalType": "uint256",
          "name": "amount",
          "type": "uint256"
        }
      ],
      "name": "awardTokens",
      "outputs": [],
      "stateMutability": "nonpayable",
      "type": "function"
    },
    {
      "inputs": [
        {
          "internalType": "address",
          "name": "account",
          "type": "address"
        }
      ],
      "name": "balanceOf",
      "outputs": [
        {
          "internalType": "uint256",
          "name": "",
          "type": "uint256"
        }
      ],
      "stateMutability": "view",
      "type": "function"
    },
    {
      "inputs": [],
      "name": "decimals",
      "outputs": [
        {
          "internalType": "uint8",
          "name": "",
          "type": "uint8"
        }
      ],
      "stateMutability": "view",
      "type": "function"
    },
    {
      "inputs": [],
      "name": "name",
      "outputs": [
        {
          "internalType": "string",
          "name": "",
          "type": "string"
        }
      ],
      "stateMutability": "view",
      "type": "function"
    },
    {
      "inputs": [],
      "name": "owner",
      "outputs": [
        {
          "internalType": "address",
          "name": "",
          "type": "address"
        }
      ],
      "stateMutability": "view",
      "type": "function"
    },
    {
      "inputs": [
        {
          "internalType": "address",
          "name": "account",
          "type": "address"
        }
      ],
      "name": "removeFromWhitelist",
      "outputs": [],
      "stateMutability": "nonpayable",
      "type": "function"
    },
    {
      "inputs": [],
      "name": "symbol",
      "outputs": [
        {
          "internalType": "string",
          "name": "",
          "type": "string"
        }
      ],
      "stateMutability": "view",
      "type": "function"
    },
    {
      "inputs": [],
      "name": "totalSupply",
      "outputs": [
        {
          "internalType": "uint256",
          "name": "",
          "type": "uint256"
        }
      ],
      "stateMutability": "view",
      "type": "function"
    },
    {
      "inputs": [
        {
          "internalType": "address",
          "name": "recipient",
          "type": "address"
        },
        {
          "internalType": "uint256",
          "name": "amount",
          "type": "uint256"
        }
      ],
      "name": "transfer",
      "outputs": [
        {
          "internalType": "bool",
          "name": "",
          "type": "bool"
        }
      ],
      "stateMutability": "nonpayable",
      "type": "function"
    },
    {
      "inputs": [
        {
          "internalType": "address",
          "name": "sender",
          "type": "address"
        },
        {
          "internalType": "address",
          "name": "recipient",
          "type": "address"
        },
        {
          "internalType": "uint256",
          "name": "amount",
          "type": "uint256"
        }
      ],
      "name": "transferFrom",
      "outputs": [
        {
          "internalType": "bool",
          "name": "",
          "type": "bool"
        }
      ],
      "stateMutability": "nonpayable",
      "type": "function"
    },
    {
      "inputs": [
        {
          "internalType": "address",
          "name": "",
          "type": "address"
        }
      ],
      "name": "whitelist",
      "outputs": [
        {
          "internalType": "bool",
          "name": "",
          "type": "bool"
        }
      ],
      "stateMutability": "view",
      "type": "function"
    }
  ],
  "bytecode": "0x608060405234801561001057600080fd5b50604051611dfa380380611dfa83398181016040528101906100329190610421565b6040518060400160405280601081526020017f57686974656c6973746564546f6b656e000000000000000000000000000000008152506040518060400160405280600381526020017f57544b000000000000000000000000000000000000000000000000000000000081525081600390816100ad9190610694565b5080600490816100bd9190610694565b50505033600560006101000a81548173ffffffffffffffffffffffffffffffffffffffff021916908373ffffffffffffffffffffffffffffffffffffffff160217905550610133600560009054906101000a900473ffffffffffffffffffffffffffffffffffffffff168261013960201b60201c565b50610886565b600073ffffffffffffffffffffffffffffffffffffffff168273ffffffffffffffffffffffffffffffffffffffff16036101ab5760006040517fec442f050000000000000000000000000000000000000000000000000000000081526004016101a291906107a7565b60405180910390fd5b6101bd600083836101c160201b60201c565b5050565b600073ffffffffffffffffffffffffffffffffffffffff168373ffffffffffffffffffffffffffffffffffffffff160361021357806002600082825461020791906107f1565b925050819055506102e6565b60008060008573ffffffffffffffffffffffffffffffffffffffff1673ffffffffffffffffffffffffffffffffffffffff1681526020019081526020016000205490508181101561029f578381836040517fe450d38c00000000000000000000000000000000000000000000000000000000815260040161029693929190610834565b60405180910390fd5b8181036000808673ffffffffffffffffffffffffffffffffffffffff1673ffffffffffffffffffffffffffffffffffffffff16815260200190815260200160002081905550505b600073ffffffffffffffffffffffffffffffffffffffff168273ffffffffffffffffffffffffffffffffffffffff160361032f578060026000828254039250508190555061037c565b806000808473ffffffffffffffffffffffffffffffffffffffff1673ffffffffffffffffffffffffffffffffffffffff168152602001908152602001600020600082825401925050819055505b8173ffffffffffffffffffffffffffffffffffffffff168373ffffffffffffffffffffffffffffffffffffffff167fddf252ad1be2c89b69c2b068fc378daa952ba7f163c4a11628f55a4df523b3ef836040516103d9919061086b565b60405180910390a3505050565b600080fd5b6000819050919050565b6103fe816103eb565b811461040957600080fd5b50565b60008151905061041b816103f5565b92915050565b600060208284031215610437576104366103e6565b5b60006104458482850161040c565b91505092915050565b600081519050919050565b7f4e487b7100000000000000000000000000000000000000000000000000000000600052604160045260246000fd5b7f4e487b7100000000000000000000000000000000000000000000000000000000600052602260045260246000fd5b600060028204905060018216806104cf57607f821691505b6020821081036104e2576104e1610488565b5b50919050565b60008190508160005260206000209050919050565b60006020601f8301049050919050565b600082821b905092915050565b60006008830261054a7fffffffffffffffffffffffffffffffffffffffffffffffffffffffffffffffff8261050d565b610554868361050d565b95508019841693508086168417925050509392505050565b6000819050919050565b600061059161058c610587846103eb565b61056c565b6103eb565b9050919050565b6000819050919050565b6105ab83610576565b6105bf6105b782610598565b84845461051a565b825550505050565b600090565b6105d46105c7565b6105df8184846105a2565b505050565b5b81811015610603576105f86000826105cc565b6001810190506105e5565b5050565b601f82111561064857610619816104e8565b610622846104fd565b81016020851015610631578190505b61064561063d856104fd565b8301826105e4565b50505b505050565b600082821c905092915050565b600061066b6000198460080261064d565b1980831691505092915050565b6000610684838361065a565b9150826002028217905092915050565b61069d8261044e565b67ffffffffffffffff8111156106b6576106b5610459565b5b6106c082546104b7565b6106cb828285610607565b600060209050601f8311600181146106fe57600084156106ec578287015190505b6106f68582610678565b86555061075e565b601f19841661070c866104e8565b60005b828110156107345784890151825560018201915060208501945060208101905061070f565b86831015610751578489015161074d601f89168261065a565b8355505b6001600288020188555050505b505050505050565b600073ffffffffffffffffffffffffffffffffffffffff82169050919050565b600061079182610766565b9050919050565b6107a181610786565b82525050565b60006020820190506107bc6000830184610798565b92915050565b7f4e487b7100000000000000000000000000000000000000000000000000000000600052601160045260246000fd5b60006107fc826103eb565b9150610807836103eb565b925082820190508082111561081f5761081e6107c2565b5b92915050565b61082e816103eb565b82525050565b60006060820190506108496000830186610798565b6108566020830185610825565b6108636040830184610825565b949350505050565b60006020820190506108806000830184610825565b92915050565b611565806108956000396000f3fe608060405234801561001057600080fd5b50600436106100ea5760003560e01c80638ab1d6811161008c5780639b19251a116100665780639b19251a1461024d578063a9059cbb1461027d578063dd62ed3e146102ad578063e43252d7146102dd576100ea565b80638ab1d681146101f55780638da5cb5b1461021157806395d89b411461022f576100ea565b806323b872dd116100c857806323b872dd1461015b5780632b5819901461018b578063313ce567146101a757806370a08231146101c5576100ea565b806306fdde03146100ef578063095ea7b31461010d57806318160ddd1461013d575b600080fd5b6100f76102f9565b6040516101049190610fbd565b60405180910390f35b61012760048036038101906101229190611078565b61038b565b60405161013491906110d3565b60405180910390f35b6101456103ae565b60405161015291906110fd565b60405180910390f35b61017560048036038101906101709190611118565b6103b8565b60405161018291906110d3565b60405180910390f35b6101a560048036038101906101a09190611078565b61045a565b005b6101af61051b565b6040516101bc9190611187565b60405180910390f35b6101df60048036038101906101da91906111a2565b610520565b6040516101ec91906110fd565b60405180910390f35b61020f600480360381019061020a91906111a2565b610568565b005b610219610653565b60405161022691906111de565b60405180910390f35b610237610679565b6040516102449190610fbd565b60405180910390f35b610267600480360381019061026291906111a2565b61070b565b60405161027491906110d3565b60405180910390f35b61029760048036038101906102929190611078565b61072b565b6040516102a491906110d3565b60405180910390f35b6102c760048036038101906102c291906111f9565b6107cb565b6040516102d491906110fd565b60405180910390f35b6102f760048036038101906102f291906111a2565b610852565b005b60606003805461030890611268565b80601f016020809104026020016040519081016040528092919081815260200182805461033490611268565b80156103815780601f1061035657610100808354040283529160200191610381565b820191906000526020600020905b81548152906001019060200180831161036457829003601f168201915b5050505050905090565b60008061039661093d565b90506103a3818585610945565b600191505092915050565b6000600254905090565b6000600660008473ffffffffffffffffffffffffffffffffffffffff1673ffffffffffffffffffffffffffffffffffffffff16815260200190815260200160002060009054906101000a900460ff16610446576040517f08c379a000000000000000000000000000000000000000000000000000000000815260040161043d906112e5565b60405180910390fd5b610451848484610957565b90509392505050565b600560009054906101000a900473ffffffffffffffffffffffffffffffffffffffff1673ffffffffffffffffffffffffffffffffffffffff163373ffffffffffffffffffffffffffffffffffffffff16146104ea576040517f08c379a00000000000000000000000000000000000000000000000000000000081526004016104e190611351565b60405180910390fd5b610517600560009054906101000a900473ffffffffffffffffffffffffffffffffffffffff168383610986565b5050565b600090565b60008060008373ffffffffffffffffffffffffffffffffffffffff1673ffffffffffffffffffffffffffffffffffffffff168152602001908152602001600020549050919050565b600560009054906101000a900473ffffffffffffffffffffffffffffffffffffffff1673ffffffffffffffffffffffffffffffffffffffff163373ffffffffffffffffffffffffffffffffffffffff16146105f8576040517f08c379a00000000000000000000000000000000000000000000000000000000081526004016105ef906113e3565b60405180910390fd5b6000600660008373ffffffffffffffffffffffffffffffffffffffff1673ffffffffffffffffffffffffffffffffffffffff16815260200190815260200160002060006101000a81548160ff02191690831515021790555050565b600560009054906101000a900473ffffffffffffffffffffffffffffffffffffffff1681565b60606004805461068890611268565b80601f01602080910402602001604051908101604052809291908181526020018280546106b490611268565b80156107015780601f106106d657610100808354040283529160200191610701565b820191906000526020600020905b8154815290600101906020018083116106e457829003601f168201915b5050505050905090565b60066020528060005260406000206000915054906101000a900460ff1681565b6000600660008473ffffffffffffffffffffffffffffffffffffffff1673ffffffffffffffffffffffffffffffffffffffff16815260200190815260200160002060009054906101000a900460ff166107b9576040517f08c379a00000000000000000000000000000000000000000000000000000000081526004016107b0906112e5565b60405180910390fd5b6107c38383610a7a565b905092915050565b6000600160008473ffffffffffffffffffffffffffffffffffffffff1673ffffffffffffffffffffffffffffffffffffffff16815260200190815260200160002060008373ffffffffffffffffffffffffffffffffffffffff1673ffffffffffffffffffffffffffffffffffffffff16815260200190815260200160002054905092915050565b600560009054906101000a900473ffffffffffffffffffffffffffffffffffffffff1673ffffffffffffffffffffffffffffffffffffffff163373ffffffffffffffffffffffffffffffffffffffff16146108e2576040517f08c379a00000000000000000000000000000000000000000000000000000000081526004016108d990611475565b60405180910390fd5b6001600660008373ffffffffffffffffffffffffffffffffffffffff1673ffffffffffffffffffffffffffffffffffffffff16815260200190815260200160002060006101000a81548160ff02191690831515021790555050565b600033905090565b6109528383836001610a9d565b505050565b60008061096261093d565b905061096f858285610c74565b61097a858585610986565b60019150509392505050565b600073ffffffffffffffffffffffffffffffffffffffff168373ffffffffffffffffffffffffffffffffffffffff16036109f85760006040517f96c6fd1e0000000000000000000000000000000000000000000000000000000081526004016109ef91906111de565b60405180910390fd5b600073ffffffffffffffffffffffffffffffffffffffff168273ffffffffffffffffffffffffffffffffffffffff1603610a6a5760006040517fec442f05000000000000000000000000000000000000000000000000000000008152600401610a6191906111de565b60405180910390fd5b610a75838383610d08565b505050565b600080610a8561093d565b9050610a92818585610986565b600191505092915050565b600073ffffffffffffffffffffffffffffffffffffffff168473ffffffffffffffffffffffffffffffffffffffff1603610b0f5760006040517fe602df05000000000000000000000000000000000000000000000000000000008152600401610b0691906111de565b60405180910390fd5b600073ffffffffffffffffffffffffffffffffffffffff168373ffffffffffffffffffffffffffffffffffffffff1603610b815760006040517f94280d62000000000000000000000000000000000000000000000000000000008152600401610b7891906111de565b60405180910390fd5b81600160008673ffffffffffffffffffffffffffffffffffffffff1673ffffffffffffffffffffffffffffffffffffffff16815260200190815260200160002060008573ffffffffffffffffffffffffffffffffffffffff1673ffffffffffffffffffffffffffffffffffffffff168152602001908152602001600020819055508015610c6e578273ffffffffffffffffffffffffffffffffffffffff168473ffffffffffffffffffffffffffffffffffffffff167f8c5be1e5ebec7d5bd14f71427d1e84f3dd0314c0f7b2291e5b200ac8c7c3b92584604051610c6591906110fd565b60405180910390a35b50505050565b6000610c8084846107cb565b90507fffffffffffffffffffffffffffffffffffffffffffffffffffffffffffffffff8114610d025781811015610cf2578281836040517ffb8f41b2000000000000000000000000000000000000000000000000000000008152600401610ce993929190611495565b60405180910390fd5b610d0184848484036000610a9d565b5b50505050565b600073ffffffffffffffffffffffffffffffffffffffff168373ffffffffffffffffffffffffffffffffffffffff1603610d5a578060026000828254610d4e91906114fb565b92505081905550610e2d565b60008060008573ffffffffffffffffffffffffffffffffffffffff1673ffffffffffffffffffffffffffffffffffffffff16815260200190815260200160002054905081811015610de6578381836040517fe450d38c000000000000000000000000000000000000000000000000000000008152600401610ddd93929190611495565b60405180910390fd5b8181036000808673ffffffffffffffffffffffffffffffffffffffff1673ffffffffffffffffffffffffffffffffffffffff16815260200190815260200160002081905550505b600073ffffffffffffffffffffffffffffffffffffffff168273ffffffffffffffffffffffffffffffffffffffff1603610e765780600260008282540392505081905550610ec3565b806000808473ffffffffffffffffffffffffffffffffffffffff1673ffffffffffffffffffffffffffffffffffffffff168152602001908152602001600020600082825401925050819055505b8173ffffffffffffffffffffffffffffffffffffffff168373ffffffffffffffffffffffffffffffffffffffff167fddf252ad1be2c89b69c2b068fc378daa952ba7f163c4a11628f55a4df523b3ef83604051610f2091906110fd565b60405180910390a3505050565b600081519050919050565b600082825260208201905092915050565b60005b83811015610f67578082015181840152602081019050610f4c565b60008484015250505050565b6000601f19601f8301169050919050565b6000610f8f82610f2d565b610f998185610f38565b9350610fa9818560208601610f49565b610fb281610f73565b840191505092915050565b60006020820190508181036000830152610fd78184610f84565b905092915050565b600080fd5b600073ffffffffffffffffffffffffffffffffffffffff82169050919050565b600061100f82610fe4565b9050919050565b61101f81611004565b811461102a57600080fd5b50565b60008135905061103c81611016565b92915050565b6000819050919050565b61105581611042565b811461106057600080fd5b50565b6000813590506110728161104c565b92915050565b6000806040838503121561108f5761108e610fdf565b5b600061109d8582860161102d565b92505060206110ae85828601611063565b9150509250929050565b60008115159050919050565b6110cd816110b8565b82525050565b60006020820190506110e860008301846110c4565b92915050565b6110f781611042565b82525050565b600060208201905061111260008301846110ee565b92915050565b60008060006060848603121561113157611130610fdf565b5b600061113f8682870161102d565b93505060206111508682870161102d565b925050604061116186828701611063565b9150509250925092565b600060ff82169050919050565b6111818161116b565b82525050565b600060208201905061119c6000830184611178565b92915050565b6000602082840312156111b8576111b7610fdf565b5b60006111c68482850161102d565b91505092915050565b6111d881611004565b82525050565b60006020820190506111f360008301846111cf565b92915050565b600080604083850312156112105761120f610fdf565b5b600061121e8582860161102d565b925050602061122f8582860161102d565b9150509250929050565b7f4e487b7100000000000000000000000000000000000000000000000000000000600052602260045260246000fd5b6000600282049050600182168061128057607f821691505b60208210810361129357611292611239565b5b50919050565b7f526563697069656e74206973206e6f742077686974656c697374656400000000600082015250565b60006112cf601c83610f38565b91506112da82611299565b602082019050919050565b600060208201905081810360008301526112fe816112c2565b9050919050565b7f4f6e6c79206f776e65722063616e20617761726420746f6b656e730000000000600082015250565b600061133b601b83610f38565b915061134682611305565b602082019050919050565b6000602082019050818103600083015261136a8161132e565b9050919050565b7f4f6e6c7920746865206f776e65722063616e2072656d6f76652066726f6d207760008201527f686974656c697374000000000000000000000000000000000000000000000000602082015250565b60006113cd602883610f38565b91506113d882611371565b604082019050919050565b600060208201905081810360008301526113fc816113c0565b9050919050565b7f4f6e6c7920746865206f776e65722063616e2061646420746f2077686974656c60008201527f6973740000000000000000000000000000000000000000000000000000000000602082015250565b600061145f602383610f38565b915061146a82611403565b604082019050919050565b6000602082019050818103600083015261148e81611452565b9050919050565b60006060820190506114aa60008301866111cf565b6114b760208301856110ee565b6114c460408301846110ee565b949350505050565b7f4e487b7100000000000000000000000000000000000000000000000000000000600052601160045260246000fd5b600061150682611042565b915061151183611042565b9250828201905080821115611529576115286114cc565b5b9291505056fea2646970667358221220e0b65ccd83affd15c8aa1261fa8a28830aaf10fcb791db3b5ec1053eb0c34a6d64736f6c634300081b0033",
  "linkReferences": {},
  "deployedLinkReferences": {}
}